:020000040800F2
:104C000050160020014D000895B10008C99A00080F
:104C100091B100083959000805C9000800000000DA
:104C200000000000000000000000000043C2000877
:104C3000B95B0008000000001DC0000855C3000853
:104C40001B4D00081B4D00081B4D00081B4D0008A4
:104C50001B4D00081B4D00081B4D00081B4D000894
:104C60001B4D00081B4D00081B4D00081B4D000884
:104C70001B4D00081B4D00081B4D00081B4D000874
:104C80001B4D00081B4D00081B4D00081B4D000864
:104C90001B4D00081B4D00081B4D00081B4D000854
:104CA0001B4D00081B4D00081B4D00081B4D000844
:104CB0001B4D000821C400081B4D00081B4D0008B7
:104CC0001B4D00081B4D00081B4D00081B4D000824
:104CD0001B4D00081B4D00081B4D00081B4D000814
:104CE0001B4D00081B4D00081B4D0008DFF80CD0C1
:104CF00000F064FC004800473DCE0008501600203C
:104D00000648804706480047FEE7FEE7FEE7FEE765
:104D1000FEE7FEE7FEE7FEE7FEE7FEE759C3000811
:104D2000ED4C00080649074A0868504343F239022F
:104D3000104408604008704701490860704700004F
:104D4000700400206D4EC64140EA01039B0703D06A
:104D500009E008C9121F08C0042AFAD203E011F8BA
:104D6000013B00F8013B521EF9D2704710B5484391
:104D7000044608F00BF9002805D00021002C02D0D1
:104D8000641E0155FAE710BDF0B480EA0102D40FA9
:104D90004200B2EB410F02D20246084611464A00D9
:104DA00042D0C30DDDB2C1F3C752AD1A202D35DAA2
:104DB000C1F3160141F4000204B15242C5F12006CC
:104DC00002FA06F12A411044B3EBD05F23D0C4B1FC
:104DD000012DA0EBC35009DCF0BC4FF0004202EA09
:104DE000C352DBB200F5000000F05CBB400000F1F4
:104DF000807000EBC350A0F1807040EAD170490090
:104E000009E0490841EAC071A0EBC35000F5000079
:104E1000400800EBC350F0BC00F03BBB61420122F4
:104E200002EB4101001BF6E7F0BC704781F0004146
:104E3000AAE780F00040A7E780EA010210B502F07F
:104E40000043400022D04A001FD0010E01EB126146
:104E5000C0F35600C2F3560240F4000042F40002D0
:104E6000A0FB022000047F39140400D0401C50EA4B
:104E7000124001D44000491EC2B20C0604EBD0100F
:104E8000401C4008802A02D003E0002010BD20F022
:104E90000100002900DA0020184310BD30B480EA78
:104EA000010202F0004530F0004221F0004013D032
:104EB00090B1C30DD40DC2F31601C0F31600E41A6D
:104EC00041F4000140F400027D34914201D3641C9E
:104ED00000E04900002C02DA30BC002070474FF49B
:104EE00000000023914201D3891A034340084FEA8E
:104EF0004101F7D151B1914202D14FF0004105E09B
:104F000002D24FF0010101E06FF0010103EBC45048
:104F1000284430BC00F0BDBA2DE9FE4F804681EA3E
:104F20000300C00F0C46009021F0004123F0004523
:104F3000B8EB0200A94105D24046214690461C46E6
:104F40000B46024623F00040104347D0270DC7F31D
:104F50000A00C3F30A510290401A019040286BDA0C
:104F6000C3F3130040F4801B0098924620B1002345
:104F7000D2EB030A63EB0B0B01985946C0F14002D8
:104F8000504600F055FA06460D4650465946019ADD
:104F900000F06DFA10EB08006141002487EA11521D
:104FA00084EAE7731A4340D0009A62B3019A012A57
:104FB0004FEA075215DC001B61EB02014FF0004283
:104FC00002EA0752CDE90042001C41F58011324649
:104FD0002B4600F0A4FA03B0BDE8F08F404621460E
:104FE000F9E7001B61EB0201001C41F5801300187A
:104FF0005B412018A2F5001747EB030140EAD5708A
:10500000B6196D4111E06D084FEA360645EAC075E4
:105010004FEA0752001B61EB0201001C41F58011B1
:1050200049084FEA30000019514132462B4603B07F
:10503000BDE8F04F00F064BA009801224000002360
:10504000D0EB020263EBE073009821464FEAE07474
:10505000B8EB000061EB0401E9E783F000435BE794
:1050600081F0004158E72DE9FE4F81EA030404F086
:10507000004421F0004100944FF0000B23F0004366
:1050800050EA01045ED052EA03045BD0C3F30A5431
:10509000C1F30A552C44A4F2F3340194A0FB02544A
:1050A000C1F3130141F48011C3F3130343F48013DC
:1050B00001FB024400FB034E840A970A44EA815430
:1050C00047EA8357A4FB076802958D0A05FB07850D
:1050D0004FEA932C04FB0C542705029D4FEA065817
:1050E00047EA1637B5EB08056EEB070C870E920EF4
:1050F00047EA811742EA8312A7FB0201B6EB0B01D4
:1051000064EB00042B0D43EA0C335E1844EB1C5097
:10511000DA465146E7FB0201C5F313044FEA0B33AD
:1051200043EA14534FEA0432019C43EA0603A4F114
:105130000C040294009CCDE900B400F0F0F903B037
:10514000BDE8F08F00200146F9E72DE9F04D81EA36
:10515000030404F0004B21F0004514464FF0000A10
:1051600023F0004150EA050220D054EA01021DD08C
:10517000C5F30A570246C5F31303C1F31300C1F385
:105180000A5640F4801543F48013A7EB0608101B61
:10519000D64608F2FD3873EB050002D308F101088A
:1051A00001E092185B41B8F1000F03DA00200146DC
:1051B000BDE8F08D00204FF48011064684460EE0D5
:1051C000171B73EB050705D3121B63EB050306439F
:1051D0004CEA010C49084FEA300092185B4150EA52
:1051E0000107EDD152EA030012D082EA040083EAFB
:1051F0000501084305D0101BAB4106D20122002354
:1052000006E000224FF0004302E06FF0010253106D
:105210001AEB06004CEB085110EB0A0041EB0B01B6
:10522000BDE8F04D00F06CB9C10F80EAE0700844B1
:10523000CA079623002100F035B9962300221146B3
:1052400000F030B90EB5C10F80EAE0700844CA071B
:10525000002140F233438DE80E000A460B4600F071
:105260005EF903B000BD0EB540F23341029100215A
:10527000CDE900110A460B4600F051F903B000BD1C
:1052800000F0004220F00040C10DC0F3160040F4D1
:1052900000007F2901DA00207047962903DCC1F164
:1052A0009601C84001E096398840002AF4D0404277
:1052B000704720F00040C10DC0F3160040F400001C
:1052C0007F2901DA00207047962903DCC1F196019D
:1052D000C840704796398840704770B5C1F30A528C
:1052E00001F000450024C1F3130140F2FF3341F403
:1052F00080119A4201DA002070BD40F233439A4295
:10530000A2F2334203DC524200F0A1F800E09040E8
:105310002C43F1D0404270BDC1F30A5210B5C1F325
:10532000130140F2FF3341F480119A4201DA002068
:1053300010BD40F233439A42A2F2334203DC5242A0
:1053400000F085F810BD904010BD00F0004230F034
:1053500000400AD0C10D01F56071C0F3160042EAA9
:105360000151C208400711437047002001467047B1
:1053700030B5041E71F1000404DB4FF000444042DC
:1053800064EB0101141E73F1000405DB1C464FF0B1
:105390000043524263EB04038B4208BF824230BD9C
:1053A00030B5041E71F1000404DB4FF000444042AC
:1053B00064EB0101141E73F1000405DB1C464FF081
:1053C0000043524263EB0403994208BF904230BD50
:1053D00001F0004330B421F0004150EA010206D050
:1053E0000A0DA2F56072C1F31301002A02DC30BC81
:1053F00000207047440F44EAC104C100E01830BCEB
:1054000000EBC25000F045B8002801DBC0F10040BD
:10541000002901DBC1F1004181427047002801DB16
:10542000C0F10040002901DBC1F100418842704712
:10543000202A04DB203A00FA02F100207047914054
:10544000C2F1200320FA03F3194390407047202A49
:1054500004DB203A21FA02F00021704721FA02F31E
:10546000D040C2F120029140084319467047202ADB
:1054700006DBCB17203A41FA02F043EAE07306E07C
:1054800041FA02F3D040C2F120029140084319468C
:1054900070470029A8BF7047401C490008BF20F092
:1054A0000100704710B4B0FA80FC00FA0CF050EA2A
:1054B000010404BF10BC704749B1CCF1200421FAAB
:1054C00004F411FA0CF118BF012121430843A3EBA6
:1054D0000C01CB1D4FEA00614FEA102042BF0020B3
:1054E00010BC704700EBC35010440029A4BF10BC8F
:1054F0007047401C490008BF20F0010010BC7047F5
:1055000010B5141E73F1000408DA401C41F10001CB
:1055100092185B411A4301D120F0010010BD2DE922
:10552000F04D92469B4611B1B1FA81F202E0B0FA19
:1055300080F220329046FFF77BFF04460F4640EA98
:105540000A0041EA0B0153465A46084313D011465C
:1055500053EA010019D0C8F140025046FFF777FF27
:1055600005460E46504659464246FFF761FF08433E
:1055700005D0012004E020463946BDE8F08D00202A
:10558000054346EAE0762C4337430A986305E40A6C
:10559000A0EB08000022FD0A44EA47540A3002D575
:1055A00000200146E9E7010510196941DDE90845D8
:1055B00000196941BDE8F04DA2E70000064C074D17
:1055C00006E0E06840F0010394E8070098471034D3
:1055D000AC42F6D3FFF78EFB1036010830360108D7
:1055E00070B58C1810F8015B15F0070301D110F8A5
:1055F000013B2A1106D110F8012B03E010F8016BD2
:1056000001F8016B5B1EF9D12B0705D40023521E54
:105610000DD401F8013BFAE710F8013BCB1A921CBC
:1056200003E013F8015B01F8015B521EF9D5A142BA
:10563000D8D3002070BD21B1826842F0010282609F
:1056400003E0826822F001028260704721B1826823
:1056500042F48072826003E0826822F48072826089
:105660007047000010B504461248844208D1012159
:10567000401506F001FD0021601506F0FDFC17E065
:105680000D48844208D10121001506F0F5FC0021E7
:10569000201506F0F1FC0BE00848844208D10121F6
:1056A000C80306F0E9FC00214FF4004006F0E4FCDA
:1056B00010BD00000024014000280140003C0140D2
:1056C000014600208A6802F004020AB1012000E0CD
:1056D000002070470146C86C80B270470246002027
:1056E00013680B400BB1012000E000207047014619
:1056F00000208A6802F008020AB1012000E00020C0
:1057000070472DE9F04107460C460025384604F065
:105710009FF9384604F09CF9002608E0384604F06A
:1057200097F90544322007F01DFA701CC6B2A64254
:10573000F4DBB5FBF4F080B2BDE8F08110B50023D6
:10574000CBB21AB144681C43446002E044689C43F5
:10575000446010BD30B502460020002350680F4C55
:1057600020400D790C6844EA05242043506090687D
:105770000B4C2040D1E902542C434D7944EA4504B6
:1057800020439060D06A20F470000C7C641EE4B268
:10579000234340EA0350D06230BD0000FFFEF0FF1B
:1057A000FDF7F1FFF0B504460D4600200021092D5C
:1057B00011DDE068A5F10A0606EB4607072606FAA2
:1057C00007F18843A5F10A0606EB460603FA06F13F
:1057D0000843E0600CE0206905EB4507072606FA60
:1057E00007F1884305EB450603FA06F108432061FB
:1057F000072A0FDA606B561E06EB86071F2606FA8D
:1058000007F18843561E06EB860605FA06F10843A3
:10581000606322E00D2A0FDA206BD61F06EB8607A5
:105820001F2606FA07F18843D61F06EB860605FAFF
:1058300006F10843206310E0E06AA2F10D0606EBD2
:1058400086071F2606FA07F18843A2F10D0606EB2C
:10585000860605FA06F10843E062F0BD816841F072
:1058600008018160704721B1826842F4A002826021
:1058700003E0826822F4A00282607047816841F0F0
:10588000040181607047000000B587B00121480223
:1058900006F0E2FB0121042006F0DEFB01210846B0
:1058A00006F0DAFB4FF4404006F0BAFB3520ADF8C5
:1058B000040000208DF8070001A91D4804F03CF801
:1058C0001C48FFF7CFFE002002908DF80C008DF8E9
:1058D0000D004FF4602004900020059001208DF809
:1058E000180002A91348FFF735FF00211148FFF700
:1058F000ADFE00224FF408710E48FFF71FFF012193
:105900000C48FFF798FE0B48FFF7A8FF00BF0948B7
:10591000FFF7EDFE0028FAD10648FFF7AFFF00BF02
:105920000448FFF7CDFE0028FAD107B000BD000003
:10593000000801400024014000BFFEE710B51048F8
:10594000B0F86A00012816D1C8214FF4167007F08C
:1059500033F807F071F84FF496714FF4C87007F000
:105960002BF807F069F84FF47A71822007F024F8D9
:1059700007F062F802E0642007F0CEF810BD0000E6
:105980008400002070B502460023632400251E48D1
:1059900030F81300904201DC184670BD1A4830F808
:1059A0001400904201DB2046F7E724E0181900EBD1
:1059B000D076C6F34F01144830F81100904200D160
:1059C0001BE0114830F81100904206DD0E4E481CD5
:1059D00036F81000904200DA0FE00B4830F8110062
:1059E000904201DA0C4600E00B4628466E1CF5B2E8
:1059F000642800DD01E0A342D8DB00BFA34201DD43
:105A00000020CAE70846C8E74A0300202DE9F0470E
:105A10004FF07E5158480068FFF700FD05D8574900
:105A200055480068FFF7F0FC09D355480068FFF7B8
:105A30008CFC0446534A544BFFF79AFC0FD853484A
:105A40000078052805DA51480078401C4F49087055
:105A500008E000204E4908734E49087002E000201B
:105A60004A4908704C49B1F92202FFF7EBFB0646A0
:105A700000224A4BFFF769FB04460D464048006888
:105A8000FFF763FC804622462B46FFF771FC0DD2E0
:105A90004148B0F92212B0F91E02814206D04048B6
:105AA000007818B904203A49087337E03448006890
:105AB000FFF74BFC0446334A334BFFF771FC03D22C
:105AC00003203349087329E02C492B480068FFF76D
:105AD000A5FC03D201202E4908731FE02C49087D44
:105AE000FFF7ABFB04462F4801682046FFF78CFC0C
:105AF00006D22D48007818B90520254908730DE015
:105B00004FF07E511C480068FFF77EFC03D2022054
:105B10001F49087302E000201D4908731C48007BE0
:105B2000012811D12148007801280DD12048008892
:105B3000401C1F490880084600880A281ADD1448BE
:105B4000007B1449087015E01148007B68B11948C2
:105B50000088401C1749088008460088052809DD90
:105B60000B48007B0B49087004E0002010490880B6
:105B700010490880BDE8F0870800002000C07D447F
:105B8000180000209A999999999935403804002075
:105B90008C0400203F0000208400002000002440EE
:105BA00043000020140000204400002004000020D6
:105BB00036040020340400207047000010B56FF058
:105BC000040006F0B3FB082404EB4400C0EBC4104F
:105BD0004FF6FF7101EAC0000149088010BD0000C6
:105BE0006C04002010B505F0E1FA234880780B28FA
:105BF00039D2DFE800F006091D2326292C2F203298
:105C0000350000F059F832E001F0D6FE1B48B0F83C
:105C10004A021B4908801948B0F85E0248801748BC
:105C2000B0F8720288801548B0F88602C8801EE07D
:105C300001F00EF81BE001F08DFF18E000F04AFEC5
:105C400015E001F009FD12E002F0A0FA0FE000F00B
:105C5000C9FC0CE000F092FC09E000F009FC06E051
:105C600000F01CFC03E000200349887000BF00BF67
:105C700005F0FCFB10BD00008C0400208400002017
:105C8000220000201CB505F091FA002014230246E2
:105C90000146009005F044FD162003210223CDE9C2
:105CA0000010044802881221402000F099F905F004
:105CB000DDFB1CBD0000002008B5BA480078C828EC
:105CC00004DAB8480078401CB6490870B648007835
:105CD00020B10020B5490870B5490881B348007863
:105CE000002846D1B249C8728880C880B14908707E
:105CF000B1490870B1490880B148007820B9B1486D
:105D00000088AB49C8812CE0AF480078012805D154
:105D1000AE48B0F8BA00A649C88122E0AA48007887
:105D2000022805D1A948B0F8CE00A149C88118E0E1
:105D3000A5480078032814D1A448B0F9E210B0F9BE
:105D4000DE00814208D101209F4908709F48B0F8C9
:105D5000BA009749C88104E09C48B0F8E200944931
:105D6000C88193480089B42802DD0A2090498870D0
:105D700000E18E4800780128FAD18E480078401C56
:105D80008C49087008460078C82801DDC8200870D2
:105D90000020874908818E4908708E490870844820
:105DA00081888A48B0F94601814274DD0220804929
:105DB000C8728348007890B98448B0F95A01814983
:105DC000B1F90010884205DA8048B0F85A017849E4
:105DD000C881C2E07B4800887549C881BDE076482B
:105DE0000078012812D17948B0F9F610B0F95A01BB
:105DF000814205DD7548B0F85A016D49C881ACE0B3
:105E00007248B0F8F6006A49C881A6E06E4800788A
:105E1000012804D0022815D003283AD125E06B4888
:105E2000B0F9BA10B0F95A01814205DD6748B0F8FF
:105E30005A015F49C88104E06448B0F8BA005C497F
:105E4000C88127E06148B0F9CE10B0F95A0181420B
:105E500005DD5E48B0F85A015549C88104E05B4849
:105E6000B0F8CE005249C88114E05848B0F9E210A9
:105E7000B0F95A01814205DD5448B0F85A014C4945
:105E8000C88104E05148B0F8E2004949C88101E006
:105E900001E000BF61E001204549C8724848007830
:105EA00018B948480088C88157E04348007801285D
:105EB00033D14648B0F8F6003D49C8814348B0F9AF
:105EC0000A013E490988884247DA4048B0F90A1178
:105ED000B0F90601814240DD00203749087072B6F2
:105EE00000213D4806F0B0FB4FF49661782006F0A3
:105EF00063FD06F0A1FD4FF49661782006F05CFD8D
:105F000006F09AFD4FF49661782006F055FD06F0F4
:105F100093FD04F05FF862B61FE000202749088077
:105F200029480078012805D12848B0F8BA0020494E
:105F3000C88112E024480078022805D12348B0F82F
:105F4000CE001B49C88108E01F480078032804D10F
:105F50001E48B0F8E2001649C8811C48B0F96E111D
:105F6000B0F9460108441249C988884202DA002083
:105F70000E49087000F032F901F0A0FD00F0AEF813
:105F800002F024FE00F0F4F802F042FEFFF73EFDBE
:105F9000002023230090114802780221382005F0C8
:105FA000BFFB08BD4C0000203F0000200400002083
:105FB0008C0400204B0000205F00002062000020C5
:105FC0005E000020480000206000002084000020C7
:105FD0004300002044000020000800405D00002035
:105FE0002DE9FF5F80468B4615469946DDE90E6731
:105FF00000200390029000248246002D43DAE843FB
:10600000451C09F10100C4B20CE021460A2007F04A
:106010007DF8B5FBF0F0C0B20290029800B903E041
:10602000601CC4B20A2CF0DB00BF012F02D0022F8B
:1060300006D102E04FF0100A03E04FF0060A00E03C
:1060400000BF00BFB9F1000F06D0301B401E00FB9F
:106050000A80C0B2039005E0301B401E00FB0A809E
:10606000C0B203904B462A4659464046CDE90067E8
:1060700005F0B6FA00203B460C22594600900398E2
:1060800005F04EFB07E04B462A4659464046CDE90F
:10609000006705F0A5FABDE8FF9F2DE9FC4706461D
:1060A0000F4614469846DDE90B5ADDF82890BAF100
:1060B000000F08D14346224639463046CDE90095C7
:1060C000FFF78EFF07E00020E2B22B463946009032
:1060D000304605F025FBBDE8FC87000038B50024FC
:1060E0002249087800EBD0714C10002C35DD0020DF
:1060F0001A2302460D210090582005F011FB012CB7
:1061000033D017DD0F2C15DA04F159020E2319468E
:10611000592005F092F804F159020F23194659202D
:1061200005F08BF804F1590210231946592005F0A7
:1061300084F81AE00E2369221946592005F07DF8EB
:106140000F236A221946592005F077F81023692297
:106150001946592005F071F807E000201A2302467D
:106160000D210090582005F0DBFA38BD32000020E8
:106170001CB500201F23024602210090642005F078
:10618000CFFA1548B0F9FA11B0F9F601814208D1F9
:1061900000202023024602210090752005F0C0FA5D
:1061A00018E00D48B0F8FA01642808D10020202337
:1061B000012202210090752005F0B2FA0AE00220C7
:1061C000009001900448B0F9FA21002302217220C6
:1061D000FFF706FF1CBD0000840000202DE9FC5FD6
:1061E0004FF0000B4FF014099448B0F9000000285C
:1061F00001DC002402E09148B0F900409048B0F979
:10620000420010B1012813D102E04FF0050A10E05E
:106210004FF0060A4846FFF726F80746894A8A4B98
:10622000FEF721FF0546FFF777F800F0FF0900E0D1
:1062300000BF00BF8548007898BB8148B0F90400D2
:10624000A0422FDD7E48B0F84200012806D17C48EC
:10625000C08D204420387E49488204E07848C08DB3
:1062600020447B4948827A48408A7A490860084637
:10627000006879490968884209DD7548C08975490F
:106280000968884203DA7248C089714948827048B7
:10629000408A6F49C98988422ADA00206F490880FC
:1062A00026E0FFE76A494C820846408A6A4908604E
:1062B00068480068096888420ADD6548C089654900
:1062C0000968884204DD63480088614948820FE01C
:1062D0006048006860490968884209DD5C48C089F7
:1062E0005D490968884203DD5948C0895849488298
:1062F0005348B0F85600F8B15548C089484454494D
:10630000498A88420DDD5248C089A0EB09005049F6
:10631000498A884205DA4E49C889FEF78EFF8346CE
:1063200004E04B49488AFEF788FF83464848C08905
:1063300048444B4908801AE04548C0894449498A85
:1063400088420BDD4248C0894149498A884205DAC2
:106350003F49C889FEF771FF834604E03C49488AFB
:10636000FEF76BFF83463A48C0893D4908803849AB
:10637000C88AFEF762FF05465946FFF745F80BD27B
:10638000384939480068FFF749F805D23049C88ACA
:10639000FEF753FF834606E000215846FFF734F826
:1063A00001D84FF0000B29480078012820D1284857
:1063B000C0892749498A88421ADA2848008805286E
:1063C00016DA26480088401C244908800120032151
:1063D000CDE900101E48C289002302210320FFF7E7
:1063E000FFFD002352460F21342002F0A3FB22E0E0
:1063F0001E480078A0B95846FEF742FF0546012026
:10640000032100232A46CDE9001002210320FFF7D3
:10641000E7FD002352460F21342002F08BFB0AE0F7
:106420000020009011480078401EC2B208230521C8
:10643000032005F075F9BDE8FC9F00001000002066
:1064400084000020CDCCCCCCCCCCFC3F0400002080
:106450008C0400202C040020300400205000002078
:106460004E00002000004842080000203F000020AD
:1064700008B50948807A0A2805DB0120064988709A
:106480000020887208BD00202123024601460090AA
:1064900005F046F900BFF5E78C04002010B504486C
:1064A000B0F89601012801D100F004F810BD0000F9
:1064B000840000201CB52A48B0F9420010B1012820
:1064C00013D108E001242648C08D264909880844D4
:1064D000254948820AE002242148C08D21490988C3
:1064E000084420382049488200E000BF00BF1F4810
:1064F00000681F490968401AB0F5FA6F15D9FEF710
:1065000011FC5A2190FBF1F201FB120019490870AD
:10651000FEF708FC162190FBF1F201FB1200164970
:106520000870124800681249086002200321CDE972
:1065300000100D48428A00230F4801780D4800786A
:10654000FFF74EFD0C4A1278921CD1B2094A12781C
:106550001332D0B20023224602F0ECFA1CBD000038
:1065600084000020100000208C040020680400201B
:106570002404002028040020290400201CB515480C
:10658000807A0A2807DB012012498870002088726F
:10659000114908701CBD00201923024601460090D5
:1065A00005F0BEF802200090012301900B480288FC
:1065B00006216620FFF714FD022003210346CDE9E2
:1065C00000100748028811216620FFF709FD00BF6F
:1065D000E0E700008C0400205C00002002000020A6
:1065E00000000020F0B58DB0AD480078401EC4B268
:1065F000AB4800781C30C5B21C22AA4906A8FEF799
:10660000A3FBA8491C3103C9CDE90401A4480078C3
:1066100004280ADA0020A44908701823024614212D
:1066200000905A2005F07CF807E000201823012292
:10663000142100905A2005F073F800200090A01C4F
:10664000C2B218230321042005F06AF802200421B5
:10665000CDE9001092480078401E04A931F81020BE
:10666000002303211E20FFF7BBFC00200223102281
:10667000032100903C2005F053F802200121002363
:10668000CDE900108648027803214320FFF7A8FCDB
:106690008648B0F8420040B9002017230246032183
:1066A00000904B2005F03CF807E000201723012262
:1066B000032100904B2005F033F810237B2219466C
:1066C000042004F0BAFD1E2339220121104604F0F3
:1066D000B4FD00201823062214210090042005F0A8
:1066E0001FF873480068FEF7CBFD06460220042120
:1066F00000233246CDE9001014211E20FFF770FC64
:1067000005EB8500694901EB8000007C05EB850104
:10671000664A02EB8101897B0422CDE900210290C7
:1067200005EB8500614901EB8000037A05EB8500EC
:1067300001EB8000B0F9062003216220FFF7ADFCD9
:106740005C48007828B900205B4908705B490870F4
:1067500019E064205A49087001205849087005EB77
:106760008500524901EB8000807B0421CDE90010B7
:1067700005EB85004D4901EB8000037A2A46032191
:10678000622000F02BFC4B480078F0B94D480078AF
:1067900090B904EB840606AF3E44F37804EB84061C
:1067A0003E44727804EB84063E44B17804EB8406E0
:1067B000B85D04F0CBFD1CE006AEF37D727DB17DCB
:1067C0009DF82C0004F0C2FD13E0002004EB8406C9
:1067D00006AF3E440090F37804EB84063E44B27862
:1067E00004EB84063E44717804EB8406B85D04F043
:1067F0009DFE2B480078052834DB2B48007810B12B
:1068000001282DD120E001202F49087003F048F81D
:106810002648B0F84A022D4908802448B0F85E02A4
:1068200048802248B0F8720288802048B0F886027A
:10683000C88006F09DFD00202549887201201A4974
:1068400008701D4908700CE02148807A022806DB98
:1068500000201D490870174908701D49887000E024
:1068600000BF00BF10480078012816D104F09EFC3C
:106870000E48B0F8E60140B9002015230246042175
:1068800000902B2004F04CFF07E000201523024667
:10689000082100901E2004F043FF0DB0F0BD000061
:1068A0003E00002084D900083E040020840000201F
:1068B00008000020400000204600002004000020C6
:1068C0004B00002047000020450000202A00002047
:1068D0008C04002070B586B0CF4800780F30C4B269
:1068E000CEA103C9CDE90401CE48807A052809DB91
:1068F000CD48007830B90120CA49887000208872DC
:1069000006B070BDC748007C10B102208DF81100A0
:10691000C648B0F8E601D0B900200090BE48007823
:10692000401EC2B2C2480078401EC1B20B230220F2
:1069300004F0F6FE00200090BE480078401EC1B270
:106940000B23B5480278022004F0EAFE3DE0B74888
:10695000B0F8E60101281CD100200090AE48007874
:10696000001DC2B2B2480078801EC1B20B230220C3
:1069700004F0D6FE00200090A7480078401DC2B267
:10698000AC480078801EC1B20B23022004F0C8FE80
:106990001BE000200090A04800780930C2B2A44853
:1069A0000078801EC1B20B23022004F0B9FE002043
:1069B0000090994800780A30C2B29E480078801E44
:1069C000C1B20B23022004F0ABFE93480078401EB6
:1069D00004A90A5C002398480178732002F0AAF801
:1069E00004A88D490978425C0023944801787320FB
:1069F00002F0A0F88C480078E8BB04EB84008B49D7
:106A000001EB8000007C04EB8401884A02EB8101E9
:106A1000897B0322CDE90021029004EB84008349A5
:106A200001EB8000037A04EB840001EB8000B0F9F5
:106A300006207F4801786020FFF72FFB601C00EBE9
:106A400080007A4901EB8000007C611C01EB810130
:106A5000764A02EB8101897B0322CDE90021029075
:106A6000601C00EB8000714901EB8000037A601C20
:106A700000EB800000E009E001EB8000B0F90620A7
:106A80006C4801786020FFF708FB85E06C480078CF
:106A9000F0BB6C480470007800EB8000634901EBA8
:106AA0008000807B0321CDE900106648007800EB70
:106AB00080005E4901EB8000037A624802785C48FE
:106AC0000178602000F08AFA601C00EB80005749D2
:106AD00001EB8000007C611C01EB8101534A02EB59
:106AE0008101897B0322CDE900210290601C00EB2B
:106AF00080004E4901EB8000037A601C00EB8000AF
:106B000001EB8000B0F906204A480178602000E0DF
:106B100002E0FFF7C2FA3FE04948007820444949C3
:106B2000087004EB8400414901EB8000007C04EB19
:106B300084013E4A02EB8101897B0322CDE90021D9
:106B4000029004EB8400394901EB8000037A04EBE6
:106B5000840001EB8000B0F9062035480178602000
:106B6000FFF79BFA3748007800EB80002F4901EBD4
:106B70008000807B0321CDE900103248007800EBD3
:106B800080002A4901EB8000037A2E4802782948C8
:106B90000178602000F022FA23480078D8B900205C
:106BA000294D274E0090367805EB8605EB78264D6B
:106BB000234E367805EB8605AA78234D204E36788D
:106BC00005EB86056978204D1D4E367815F82600B0
:106BD00004F0ACFC1EE000201B4D194E00903678EE
:106BE00005EB8605EB78184D154E367805EB8605D6
:106BF000AA78154D124E367805EB86056978124D48
:106C00000F4E367815F82650104E36783544E8B2D7
:106C100004F08CFC00BF73E63B0000200701070076
:106C2000000000008C0400204000002084000020B0
:106C30001C0400201D0400201E0400201F0400204E
:106C4000410000203B040020140400202004002008
:106C500070B586B0D2480078401EC4B2D1A2D2E945
:106C600000109268CDE904020391D148807A05288A
:106C700009DBD048007830B90120CD498870002068
:106C8000887206B070BDCA48007C20B102208DF821
:106C90000C008DF80E00C848B0F8E601D0B900200D
:106CA0000090BF480078401EC2B2C4480078401E21
:106CB000C1B20A23022004F033FD00200090C04836
:106CC0000078401EC1B20A23B5480278022004F0C1
:106CD00027FD3DE0B848B0F8E60101281CD10020AE
:106CE0000090AF4800780830C2B2B4480078801EE7
:106CF000C1B20A23022004F013FD00200090A8482E
:106D000000780930C2B2AE480078801EC1B20A23B2
:106D1000022004F005FD1BE000200090A048007850
:106D20001130C2B2A5480078801EC1B20A230220E9
:106D300004F0F6FC00200090994800781230C2B2AE
:106D40009F480078801EC1B20A23022004F0E8FCAC
:106D500093480078401E03A90A5C002399480178F3
:106D6000742001F0E7FE03A88D490978425C0023F6
:106D700095480178742001F0DDFE8E480078E8BB6C
:106D800004EB84008C4901EB8000007C04EB84015F
:106D9000894A02EB8101897B0322CDE9002102901F
:106DA00004EB8400844901EB8000037A04EB840047
:106DB00001EB8000B0F90620804801786020FFF7E1
:106DC0006CF9601C00EB80007B4901EB8000007CCB
:106DD000611C01EB8101784A02EB8101897B03226E
:106DE000CDE900210290601C00EB8000724901EBAC
:106DF0008000037A601C00EB800000E009E001EBFA
:106E00008000B0F906206E4801786020FFF745F950
:106E100085E06E480078E8BB6D480470007800EBB0
:106E20008000654901EB8000807B0321CDE90010E3
:106E30006748007800EB80005F4901EB8000037A2F
:106E4000634802785D480178602000F0C7F8601C54
:106E500000EB8000584901EB8000007C611C01EBD5
:106E60008101554A02EB8101897B0322CDE9002192
:106E70000290601C00EB80004F4901EB8000037A18
:106E8000601C00EB800001EB8000B0F906204C484C
:106E9000017800E003E06020FFF7FFF83FE04B4897
:106EA000007820444A49087004EB8400424901EB11
:106EB0008000007C04EB84013F4A02EB8101897B66
:106EC0000322CDE90021029004EB84003A4901EB52
:106ED0008000037A04EB840001EB8000B0F9062007
:106EE000364801786020FFF7D8F83948007800EB81
:106EF0008000314901EB8000807B0321CDE9001047
:106F00003348007800EB80002B4901EB8000037AC6
:106F10002F4802782A480178602000F05FF8254861
:106F20000078D8B900202B4D284E0090367805EB1C
:106F30008605EB78274D254E367805EB8605AA7831
:106F4000244D224E367805EB86056978214D1F4E7B
:106F5000367815F8260004F0E9FA1EE000201D4DF1
:106F60001A4E0090367805EB8605EB78194D174ED2
:106F7000367805EB8605AA78164D144E367805EB63
:106F800086056978134D114E367815F82650124E45
:106F900036783544E8B204F0C9FA00BF71E6000063
:106FA0003900002001000100000000000000000086
:106FB0008C04002040000020840000201C040020DD
:106FC0001D0400201E0400201F040020410000209A
:106FD0003904002014040020200400202DE9FE4F75
:106FE00080460D4617469A46DDE90C693C46FE4848
:106FF000007820B1012810D002287CD1AAE204EB4D
:107000008400FA4901EB8000B0F90600F6494860B7
:1070100001200870F649087000E3F648807A0528D8
:1070200009DBF4488078062805D00020F1498872F1
:107030000220ED490870EF48807806281BD104EB48
:107040008400EA4901EB8000007C04EB8401E74AFC
:1070500002EB8101897BCDE90061029004EB8400A1
:10706000114601EB8000037ADF482946426840461A
:10707000FFF713F81AE004EB8400DC4901EB800011
:10708000017C04EB8400D94A02EB8000807BCDE9CF
:107090000060029104EB8400114601EB8000037A4A
:1070A000D148294642684046FEF7F7FF0B2C36D1FF
:1070B000CD48406804EB8401CC4A02EB8101B1F970
:1070C0000210884218D101201121CDE900610290FF
:1070D00004EB8400114601EB8000037A002229466C
:1070E0004046FEF7DAFFA81CC1B200231A467920F9
:1070F00001F020FD99E090E2BE48007C38B9A81C60
:10710000C1B200230122742001F014FD8DE0A81CFF
:10711000C1B200230222742001F00CFD85E00D2C89
:107120002AD1B148406804EB8401B04A02EB8101E6
:10713000B1F90410884217D101201121CDE9006175
:10714000029004EB8400114601EB8000037A0122D7
:1071500029464046FEF7A1FFA81CC1B200231A46EB
:10716000792001F0E7FC60E0A81CC1B200230722EF
:10717000742001F0DFFC58E01B2C2AD19A484068AB
:1071800004EB8401994A02EB8101B1F902108842B3
:1071900017D1281DC1B200231A46742001F0CAFC81
:1071A00001201121CDE90061029004EB84008F4998
:1071B00001EB8000037A002229464046FEF76DFF6E
:1071C00033E0281DC1B200230422742001F0B2FC78
:1071D0002BE0192C29D18448406804EB8401834AB0
:1071E00002EB8101B1F90210884217DCA81CC1B280
:1071F00000231A46732001F09DFC01201E21CDE9D9
:107200000061029004EB8400784901EB8000037A6E
:10721000002229464046FEF740FF06E0A81CC1B206
:1072200000230922732001F085FC6F49486804F0AF
:1072300043F97148807901283ED100206E49887158
:107240006C48807808280DD16C480078401E6C4945
:1072500009780844042805D1634840680A30624927
:10726000486015E06348807805280CD165480078AF
:10727000401E65490978084428B95B484068401DAC
:107280005949486004E058484068401C56494860E5
:107290005548406804EB8401544A02EB8101B1F97E
:1072A0000410884208DD04EB8400114601EB8000E5
:1072B000B0F904004C4948604F48007802283ED19C
:1072C0004D480079D8BB4B48807808280DD14B48F1
:1072D0000078401E4A4909780844042805D14248EC
:1072E00040680A304049486015E0424880780528E7
:1072F0000CD144480078401E43490978084428B915
:1073000039484068401D3849486004E036484068C4
:10731000401C354948603448406804EB8401334AD6
:1073200002EB8101B1F90410884208DD04EB84000E
:10733000114601EB8000B0F904002B494860334846
:10734000807901283ED10020304988712948807811
:1073500008280DD129480078401E29490978084499
:10736000042805D1204840680A381F49486015E0C4
:107370002048807805280CD122480078401E2249F8
:107380000978084428B918484068401F16494860E1
:1073900004E015484068401E1349486012484068A0
:1073A00004EB8401114A02EB8101B1F90210884219
:1073B00008DA04EB8400114601EB8000B0F902000A
:1073C0000949486011480078022854D10F480079D3
:1073D000B8BB08488078082822D108480078401EA9
:1073E00007490978084413E0A40400208400002021
:1073F000400000208C040020640000203A0000209F
:10740000420000203D000020410000206C000020D0
:10741000042805D1834840680A388249486016E04C
:107420008148807805280DD180480078401E804929
:107430000978084430B97B484068401F7949486062
:1074400005E018E077484068401E76494860754876
:10745000406804EB8401774A02EB8101B1F9021024
:10746000884208DA04EB8400114601EB8000B0F991
:1074700002006C49486070480078022869D16E4863
:107480000079E0BB01206C49087100206549087053
:107490006A49087004EB8400664901EB8000B0F98A
:1074A000060060494968884246D05E48808800B23C
:1074B00004EB84015F4A02EB8101C88005F082F988
:1074C00059488078062805D014B901205C49087015
:1074D00002F0E6F95448807805281CD1534800781A
:1074E000534909780844022815D1012055490870EC
:1074F00003F05CFE03F0BAFF4FF4FA7000E01AE00C
:1075000005F00AFB002001F044FC4FF4FA7005F08E
:1075100003FB00BFFEE744488078082819D14A4899
:1075200000784A4909780844072812D1414890F860
:107530003201474908700CE03B488078042808D1A4
:10754000444800783A4909780844042801D102F0F7
:10755000A7F963E00020334908703849087004EB4C
:107560008400344901EB8000B0F906002D494968D8
:10757000884244D02B48808800B204EB84012D4A15
:1075800002EB8101C88005F01DF9274880780628A4
:1075900005D014B901202A49087002F081F9224867
:1075A000807805281AD121480078214909780844B3
:1075B000022813D101202349087003F0F7FD03F0DE
:1075C00055FF4FF4FA7005F0A7FA002001F0E1FB37
:1075D0004FF4FA7005F0A0FA00BFFEE71248807879
:1075E000082819D11848007818490978084407284C
:1075F00012D1104890F83201154908700CE00A4881
:107600008078042808D1134800780949097808448B
:10761000042801D102F044F900BF00BF00BFBDE85B
:10762000FE8F0000A40400208C0400203D000020F8
:107630004100002084000020740000204000002051
:107640004A000020520000203A00002042000020A2
:107650005E0000203C0000207FB5CB48007814304D
:10766000C4B200200390C948807A052808DBC848C6
:10767000007828B90120C5498870002088727FBD34
:10768000C448B0F8E601D0B900200090BE480078A8
:10769000401EC2B2C0480078401EC1B20C23022076
:1076A00004F03EF800200090BC480078401EC1B2B3
:1076B0000C23B5480278022004F032F83DE0B548CA
:1076C000B0F8E60101281CD100200090AE480078F7
:1076D000C01CC2B2B0480078801EC1B20C23022088
:1076E00004F01EF800200090A7480078001DC2B2E8
:1076F000AA480078801EC1B20C23022004F010F8C2
:107700001BE000200090A0480078C01DC2B2A24833
:107710000078801EC1B20C23022004F001F8002082
:107720000090994800780830C2B29C480078801ECA
:10773000C1B20C23022003F0F3FF93480078401EEF
:1077400003A90A5C002396480178732001F0F2F93E
:1077500003A88D490978425C002392480178732080
:1077600001F0E8F98A480078E8BB04EB8400894915
:1077700001EB8000007C04EB8401864A02EB81016E
:10778000897B0322CDE90021029004EB840081492A
:1077900001EB8000037A04EB840001EB8000B0F978
:1077A00006207D4801786020FEF777FC601C00EB26
:1077B0008000784901EB8000007C611C01EB8101B5
:1077C000744A02EB8101897B0322CDE900210290FA
:1077D000601C00EB80006F4901EB8000037A601CA5
:1077E00000EB800000E009E001EB8000B0F906202A
:1077F0006A4801786020FEF750FC85E06A4800780E
:10780000F0BB6A480470007800EB8000614901EB2E
:107810008000807B0321CDE900106448007800EBF4
:1078200080005C4901EB8000037A604802785A4886
:1078300001786020FFF7D2FB601C00EB8000554907
:1078400001EB8000007C611C01EB8101514A02EBDD
:107850008101897B0322CDE900210290601C00EBAD
:1078600080004C4901EB8000037A601C00EB800033
:1078700001EB8000B0F9062048480178602000E064
:1078800002E0FEF70AFC3FE0474800782044474901
:10789000087004EB84003F4901EB8000007C04EB9E
:1078A00084013C4A02EB8101897B0322CDE900215E
:1078B000029004EB8400374901EB8000037A04EB6B
:1078C000840001EB8000B0F9062033480178602085
:1078D000FEF7E3FB3548007800EB80002D4901EB13
:1078E0008000807B0321CDE900103048007800EB58
:1078F0008000284901EB8000037A2C480278274851
:1079000001786020FFF76AFB21480078D8B9002091
:10791000274D254E0090367805EB8605EB78244DF3
:10792000214E367805EB8605AA78214D1E4E367815
:1079300005EB860569781E4D1B4E367815F8260036
:1079400003F0F4FD1EE00020194D174E009036782C
:1079500005EB8605EB78164D134E367805EB86055C
:10796000AA78134D104E367805EB86056978104DD0
:107970000D4E367815F826500E4E36783544E8B25E
:1079800003F0D4FD00BF7AE63C0000208C04002008
:1079900040000020840000201C0400201D04002062
:1079A0001E0400201F040020410000203C04002091
:1079B000140400202004002030B587B03B48047830
:1079C0003B48B0F8E601F8B918223A4901A8FDF79A
:1079D000BBF90020092302460146009003F0A0FEF7
:1079E000002001AD05EB84050090EB7801AD05EBBF
:1079F0008405AA7801AD05EB8405697801AD15F819
:107A0000240003F093FD46E02948B0F8E601012880
:107A100020D118222749183101A8FDF795F9002037
:107A2000092301220146009003F07AFE002001ADF7
:107A300005EB84050090EB7801AD05EB8405AA7891
:107A400001AD05EB8405697801AD15F8240003F05C
:107A50006DFD20E018221749303101A8FDF774F9B7
:107A60000020092302220146009003F059FE002065
:107A700001AD05EB84050090EB7801AD05EB8405C5
:107A8000AA7801AD05EB8405697801AD15F82400ED
:107A900003F04CFD00BF0848807A052804DB002075
:107AA0000549887007B030BD00BFFBE738000020F3
:107AB000840000203CD900088C0400201CB521481B
:107AC000B0F9420010B1012810D107E001245F2075
:107AD0001D4908754FF4FA70C88208E00224CB20D3
:107AE000194908754FF46970C88200E000BF00BFF3
:107AF00002200321CDE900101348C289002302218E
:107B00004420FEF76DFA002322460421562001F09E
:107B100011F80E480078012813D100200C2301220F
:107B200060210090432003F001FD094800780128FE
:107B300007D1002020230D2244210090322003F0A1
:107B4000F5FC1CBD840000208C0400205E00002099
:107B50005F00002070B586B0FD4800780830C4B2E0
:107B6000FCA103C9CDE90401FC48807A052809DBA2
:107B7000FB48007830B90220F849887000208872EC
:107B800006B070BDF548007C40B102208DF81000B1
:107B90008DF811008DF812008DF81300F148B0F93E
:107BA000E210B0F9DE00814203D100208DF812000E
:107BB00009E0EC48B0F90A11B0F90801814202D19C
:107BC00000208DF81400E748B0F8E601D0B9002095
:107BD0000090DF480078401EC2B2E3480078401EA3
:107BE000C1B22423022003F09BFD00200090DF4857
:107BF0000078401EC1B22423D5480278022003F049
:107C00008FFD3DE0D748B0F8E60101281CD10020E7
:107C10000090CF480078801DC2B2D3480078801E03
:107C2000C1B22423022003F07BFD00200090C8484D
:107C30000078C01DC2B2CD480078801EC1B2242396
:107C4000022003F06DFD1BE000200090C04800788A
:107C50000D30C2B2C4480078801EC1B22423022075
:107C600003F05EFD00200090B94800780E30C2B2EB
:107C7000BE480078801EC1B22423022003F050FDCC
:107C8000B3480078401E04A90A5C0023B848017874
:107C9000742000F04FFF04A8AD490978425C00232E
:107CA000B4480178742000F045FFAD480078002802
:107CB0007DD104EB8400AB4901EB8000007C04EB38
:107CC0008401A84A02EB8101897B0322CDE90021CE
:107CD000029004EB8400A34901EB8000037A04EBDB
:107CE000840001EB8000B0F906209F4801786020F5
:107CF000FEF7D3F90B2C22D104EB8400994901EB58
:107D00008000B0F9060004EB8401964A02EB810181
:107D1000B1F90210884236D1012011210322CDE9A8
:107D20000021029004EB84008E4901EB8000037A6D
:107D300000228D4801786020FEF7AFF923E00D2C7A
:107D400021D104EB8400874901EB8000B0F90600E3
:107D500004EB8401834A02EB8101B1F904108842EB
:107D600011D1012011210322CDE90021029004EB61
:107D700084007C4901EB8000037A01227A48017873
:107D80006020FEF78AF9601C00EB8000754901EB6A
:107D90008000007C611C01EB8101724A02EB8101D1
:107DA000897B0322CDE900210290601C00E063E0A2
:107DB00000EB80006B4901EB8000037A601C00EB54
:107DC000800001EB8000B0F906206848017860204F
:107DD000FEF763F9601C0B2825D1601C00EB8000C6
:107DE000604901EB8000B0F90610601C00EB8000D8
:107DF0005C4A02EB8000B0F90200814212D10120FE
:107E000011210322CDE900210290601C00EB8000CB
:107E1000544901EB8000037A002254480178602025
:107E2000FEF73BF961E1601C0D28FBD1601C00EB03
:107E300080004C4901EB8000B0F90610601C00EB9B
:107E40008000484A02EB8000B0F904008142E9D189
:107E5000012011210322CDE900210290601C00EBDA
:107E60008000404901EB8000037A01223F480178FD
:107E70006020FEF712F938E13F480078002866D10B
:107E80003E480470007800EB8000364901EB80002A
:107E9000807B0321CDE900103848007800EB80009A
:107EA000304901EB8000037A344802782E4801788B
:107EB0006020FFF793F8601C00EB8000294901EB7C
:107EC0008000007C611C01EB8101264A02EB8101EC
:107ED000897B0322CDE900210290601C00EB800029
:107EE000204901EB8000037A601C00EB800001EB6D
:107EF0008000B0F906201D4801786020FEF7CDF81B
:107F0000601C0B283FD1601C00EB8000154901EB81
:107F10008000B0F90610601C00EB8000114A02EBF3
:107F20008000B0F902008142A5D101201121032275
:107F3000CDE900210290601C00EB8000094901EBB3
:107F40008000037A002209480178602018E043E0AD
:107F50003A00002001010101070000008C0400200C
:107F600040000020840000201C0400201D0400208C
:107F70001E0400201F040020420000203A040020BC
:107F8000FEF78BF8B1E0601C0D28FBD1601C00EB04
:107F90008000764901EB8000B0F90610601C00EB10
:107FA0008000724A02EB8000B0F90400814212D1D5
:107FB000012011210322CDE900210290601C00EB79
:107FC00080006A4901EB8000037A01226848017849
:107FD0006020FEF762F888E0664800782044664931
:107FE000087004EB8400614901EB8000007C04EB25
:107FF00084015E4A02EB8101897B0322CDE90021E5
:10800000029004EB8400594901EB8000037A04EBF1
:10801000840001EB8000B0F9062058480178602008
:10802000FEF73BF80B2C22D104EB84004F4901EB07
:108030008000B0F9060004EB84014C4A02EB810198
:10804000B1F90210884236D1012011210322CDE975
:108050000021029004EB8400444901EB8000037A84
:108060000022464801786020FEF717F823E00D2C27
:1080700021D104EB84003D4901EB8000B0F90600FA
:1080800004EB8401394A02EB8101B1F90410884202
:1080900011D1012011210322CDE90021029004EB2E
:1080A0008400324901EB8000037A012233480178D1
:1080B0006020FDF7F2FF3048007800EB80002B498C
:1080C00001EB8000807B0321CDE900102A48007875
:1080D00000EB8000254901EB8000037A26480278F6
:1080E000234801786020FEF779FF25480078D8B949
:1080F0000020244D1F4E0090367805EB8605EB7866
:10810000204D1C4E367805EB8605AA781D4D194E7C
:10811000367805EB860569781A4D164E367815F8CF
:10812000260003F003FA1EE00020164D114E0090C9
:10813000367805EB8605EB78124D0E4E367805EB5A
:108140008605AA780F4D0B4E367805EB86056978C3
:108150000C4D084E367815F826500B4E36783544BF
:10816000E8B203F0E3F900BF0AE500008400002054
:108170001D040020420000203A0400201C040020BE
:1081800040000020140400202004002000B587B027
:10819000FE4800781830C0B20690FDA00068059037
:1081A000FC48807A052809DBFB48007830B90120BB
:1081B000F84988700020887207B000BDF748B0F811
:1081C000E60100BB00200090F0480078401EC0B2DD
:1081D0000490F3480078401EC0B20D23039001467E
:1081E0000220049A03F09CFA00200090ED480078E9
:1081F000401EC0B20D230490E44802780220049986
:1082000003F08EFA4DE0E548B0F8E601012824D1EC
:1082100000200090DD480078C01CC0B20490E04807
:108220000078801EC0B20D23039001460220049AFC
:1082300003F076FA00200090D4480078001DC0B208
:108240000490D8480078801EC0B20D2303900146E8
:108250000220049A03F064FA23E000200090CB4847
:108260000078C01DC0B20490CD480078801EC0B216
:108270000D23039001460220049A03F051FA0020D6
:108280000090C24800780830C0B20490C548007819
:10829000801EC0B20D23039001460220049A03F011
:1082A0003FFABA480078401E05A9085C0490BE4811
:1082B0000078801CC0B20023039001467420049A09
:1082C00000F038FC05A8B1490978405C0490B74833
:1082D0000078801CC0B20023039001467420049AE9
:1082E00000F028FCAC48007800287DD1069800EB0F
:1082F0008000AA4901EB8000007C069901EB810116
:10830000A64A02EB8101897B0322CDE9002102907C
:10831000069800EB8000A14901EB8000007A0490F0
:10832000069800EB800001EB8000B0F90600039096
:1083300002469B4801786020049BFDF7AEFE06983C
:1083400019286BD1069800EB8000944901EB80005E
:10835000B0F90610069800EB8000904A02EB80000E
:10836000B0F90200814215D101201E210322CDE97E
:1083700000210290069800EB8000884901EB800004
:10838000007A034600220490854801786020FDF7BA
:1083900084FE06E00023092283480178732000F060
:1083A000C9FB069800EB80007C4901EB8000B0F926
:1083B0000610069800EB8000784A02EB8000B0F9C6
:1083C0000400814260DD069800EB8000114601EB5D
:1083D0008000007C069901EB810102EB8101897B21
:1083E0000322CDE9002100E042E10290069800EB73
:1083F00080006A4901EB8000007A0490069800EB47
:10840000800001EB8000B0F904000390024664484C
:1084100001786020049BFDF740FE35E006981B289C
:1084200032D1069800EB80005C4901EB8000B0F986
:108430000610069800EB8000584A02EB8000B0F965
:108440000200814215D1012011210322CDE9002132
:108450000290069800EB8000504901EB8000007A02
:108460000346002204904E4801786020FDF715FE77
:108470000AE04D480078801CC0B200230422014667
:108480000490742000F056FB0698401C00EB80001E
:10849000424901EB8000017C0698401C00EB800003
:1084A0003E4A02EB8000807B0322CDE9002002914E
:1084B0000698401C00EB8000384901EB8000007AF0
:1084C00004900698401C00EB800001EB8000B0F99E
:1084D000060003900246334801786020049BFDF7B4
:1084E000DCFD0698401C19287ED10698401C00EB44
:1084F00080002A4901EB8000B0F906100698401C64
:1085000000EB8000254A02EB8000B0F902008142B6
:1085100016D101201E210322CDE9002102900698E8
:10852000401C00EB80001D4901EB8000007A0346EF
:10853000002204901B4801786020FDF7AEFD06E0A4
:108540000023092219480178732000F0F3FA0698F5
:10855000401C00EB8000114901EB8000B0F90610CF
:108560000698401C00EB80000C4A02EB8000B0F93A
:108570000400814240DD0698401C00EB800011465B
:1085800001EB8000017C0698401C11E03D000020BA
:10859000000000048C040020400000208400002023
:1085A0001C0400201D0400201E0400201F040020C5
:1085B00000EB800002EB8000807B0322CDE90020ED
:1085C00002910698401C00EB8000FA4901EB800004
:1085D000007A04900698401C00EB800001EB8000BC
:1085E000B0F90400039000E007E00246F248017889
:1085F0006020049BFDF751FD3CE20698401C1B28BF
:10860000FAD10698401C00EB8000EA4901EB80009B
:10861000B0F906100698401C00EB8000E54A02EB1A
:108620008000B0F90200814216D1012011210322FD
:10863000CDE9002102900698401C00EB8000DD4946
:1086400001EB8000007A034600220490DA480178AA
:108650006020FDF722FD0DE2D8480078801CC0B2F2
:108660000023042201460490742000F063FA01E222
:10867000D348007800287AD1D24906980870084675
:10868000007800EB8000CB4901EB8000807B032168
:10869000CDE90010CB48007800EB8000C54901EB24
:1086A0008000007A03460490C6480278C6480178E4
:1086B0006020FEF793FC0698401C00EB8000BD494B
:1086C00001EB8000017C0698401C00EB8000B94A59
:1086D00002EB8000807B0322CDE900200291069806
:1086E000401C00EB8000B34901EB8000007A04904D
:1086F0000698401C00EB800001EB8000B0F90600FA
:1087000003900246AC4801786020049BFDF7C5FC4D
:108710000698401C192875D10698401C00EB800073
:10872000A44901EB8000B0F906100698401C00EB4C
:108730008000A04A02EB8000B0F90200814217D10C
:1087400001201E210322CDE9002102900698401C41
:1087500000EB8000974901EB8000007A034600227D
:108760000490954801786020FDF797FC07E084E0CD
:108770000023092291480178732000F0DBF9069864
:10878000401C00EB80008B4901EB8000B0F9061023
:108790000698401C00EB8000864A02EB8000B0F98E
:1087A000040081422CDD0698401C00EB800011463D
:1087B00001EB8000017C0698401C00EB800002EB7E
:1087C0008000807B0322CDE9002002910698401CA6
:1087D00000EB8000774901EB8000007A0490069856
:1087E000401C00EB8001734800EB8100B0F90400ED
:1087F00003900246704801786020049BFDF74DFC11
:1088000038E1FFE70698401C1B28F9D10698401C68
:1088100000EB8000674901EB8000B0F90610069874
:10882000401C00EB8000634A02EB8000B0F90200BC
:10883000814216D1012011210322CDE900210290AD
:108840000698401C00EB80005A4901EB8000007A3A
:10885000034600220490584801786020FDF71DFC73
:1088600008E156480078801CC0B20023042201466B
:108870000490742000F05EF9FCE0514909780698F4
:10888000084450490870069800EB8000494901EB04
:108890008000007C069901EB8101464A02EB8101D0
:1088A000897B0322CDE900210290069800EB80002D
:1088B000404901EB8000007A0490069800EB8000AC
:1088C00001EB8000B0F90600039002463E480178B3
:1088D0006020049BFDF7E1FB0698192878D10698E3
:1088E00000EB8000334901EB8000B0F906100698D8
:1088F00000EB80002F4A02EB8000B0F902008142B9
:1089000015D101201E210322CDE9002102900698F5
:1089100000EB8000274901EB8000007A034600222B
:108920000490294801786020FDF7B7FB06E000239A
:10893000092226480178732000F0FCF8069800EB25
:1089400080001C4901EB8000B0F90610069800EB8E
:108950008000184A02EB8000B0F9040081426DDD0E
:10896000069800EB8000114601EB8000007C069920
:1089700001EB810102EB8101897B0322CDE900211A
:108980000290069800EB80000A4901EB8000007A13
:108990000490069800EB800001EB8000B0F9040021
:1089A00003900246084801786020049BFDF775FBA0
:1089B00044E00DE0840000201D0400201F0400207E
:1089C000410000203D0400201C0400201E04002063
:1089D00006981B2832D1069800EB80004C4901EB29
:1089E0008000B0F90610069800EB8000484A02EBC0
:1089F0008000B0F90200814215D10120112103222B
:108A0000CDE900210290069800EB8000404901EB7F
:108A10008000007A0346002204903E4801786020DE
:108A2000FDF73BFB0AE03C480078801CC0B2002305
:108A3000042201460490742000F07CF83748007846
:108A400000EB8000324901EB8000807B0321CDE9FF
:108A500000103248007800EB80002D4901EB8000C7
:108A6000007A034604902D4802782D480178602052
:108A7000FEF7B4FA2B48007808BB002000902A4883
:108A80002A49097800EB8100C078049026482749DC
:108A9000097800EB81008078039023482349097806
:108AA00000EB8100407802901F482049097810F8B7
:108AB0002100019002A90EC902F038FD24E0002037
:108AC000009019481949097800EB8100C0781649CF
:108AD00004901648007801EB8000807803900846E7
:108AE0001249097800EB8100407802900E480F4946
:108AF000097810F821000E4909780844C0B20190A5
:108B000002A90EC902F012FD00BFFFF755BB00001D
:108B1000840000201C0400201E0400203D040020CE
:108B20001D0400204000002014040020410000200B
:108B3000200400202DE9F84305460E4614469946C8
:108B40000027B8460A2C2AD2DFE804F005090D11E7
:108B500015191D21292502274FF00D0820E00327B4
:108B60004FF000081CE003274FF0010818E006272B
:108B70004FF0000814E007274FF0000810E004272A
:108B80004FF000080CE004274FF0010808E012271E
:108B90004FF0000804E01C274FF0000800E000BF81
:108BA00000BF44B100203B46424631460090284673
:108BB00002F0B6FD07E000203B46424631460090F9
:108BC000284602F0ADFDBDE8F88300007CB50E49F3
:108BD0000E480068FCF730F90546FCF751FB0446E7
:108BE0000220032101232246CDE900101521642033
:108BF000FDF7F6F90023042219217820FFF79AFFE8
:108C000000F0A4FA7CBD0000000020411800002004
:108C100008B50C48007848B9002000900A48C27A8C
:108C200005231421462002F07BFD0AE0002000907D
:108C300004480078401EC2B213231521462002F0DA
:108C40006FFD08BD3F0000208C04002030B50446B5
:108C500004254FF4302000F089F80546042D17D183
:108C60000C48006940F002000A4908610846446166
:108C7000006940F0400008614FF4302000F076F8C1
:108C800005460448006941F6FD7108400149086144
:108C9000284630BD0020024004200B49C96801F07D
:108CA000010109B101200EE00749C96801F0040182
:108CB00009B1022007E00449C96801F0100109B1B7
:108CC000032000E0042070470020024003480069B0
:108CD00040F0800001490861704700000020024018
:108CE0000549096821F01001034A1160114609681D
:108CF00001431160704700000020024070B5044637
:108D00000D460426F00200F031F80646042E11D17B
:108D10000948006940F00100074908612580F00218
:108D200000F024F806460448006941F6FE71084048
:108D300001490861304670BD002002400146002014
:108D4000034A106800F038000843106070470000C4
:108D500000200240024803494860034848607047C9
:108D60002301674500200240AB89EFCD00B50246E4
:108D70000423FFF791FF034603E0FFF78DFF03464F
:108D8000521E012B01D1002AF7D102B90523184642
:108D900000BD10B5044624B10121412000F0C5F901
:108DA00003E00221412000F0C0F910BD10B50121FF
:108DB000432000F0BAF910BD2DE9F0410024002550
:108DC00000260027A046152000F0A2F90120FFF799
:108DD000E0FF00204449087008460021C0F8021056
:108DE000C18001720161818281751E3001608180C4
:108DF00081711E38C162018680F832104FF4FA701A
:108E000003F08AFE00BF6BE0C02101EB8401C8B211
:108E100000F063F90546C12101EB8401C8B200F0FE
:108E20005CF90646C22101EB8401C8B200F055F995
:108E30000746C32101EB8401C8B200F04EF9804619
:108E4000F5B308F0C000F0B101212748801C20F8DC
:108E500014106420704324491E3121F81400781046
:108E600008F0010100EBC111642041431E4810309D
:108E700020F8141005F07F00322148431A492C31A4
:108E800021F8140022E0B01007F00F0100EB811070
:108E900000EBC00101EB00104FF6FF7101EA400149
:108EA00011481E3020F8141030F814100E3820F835
:108EB000141006F0030005EB002000EB800000E03A
:108EC0000AE0410008482C3020F8141006480078C9
:108ED000401C0549087000E000E000BF601CC4B2FF
:108EE000072C91DBBDE8F081C404002010B50446D6
:108EF0001C480078152808D0152000F009F9012039
:108F0000FFF747FF642003F007FE042C1DD116482D
:108F10000078401E1449891C31F8100020B9881EC1
:108F20000078401EC4B210E00F480078801E0E4941
:108F3000891C31F8100020B9881E0078801EC4B248
:108F400003E009480078C01EC4B204EB0410C1B2AB
:108F5000462000F0EAF8FFF729FF152001490870C4
:108F600010BD000018030020C40400202DE9F84FB4
:108F700004460D4616469946AA46009630480078A3
:108F8000142809D0142000F0C3F80120FFF701FFD6
:108F90004FF4FA7003F0C0FD2A4830F81400A842DC
:108FA00005DD284830F814A030F81400009025485A
:108FB0000E3830F81400B04206DA22480E3830F885
:108FC00014A030F81400009004EB0410C1B2462045
:108FD00000F0ABF81B4830F81400AAEB0000142195
:108FE00090FBF1F087B2174830F814100098401A3F
:108FF000142190FBF1F01FFA80F8322099FBF0F079
:1090000000F0FF0B5946DE2000F08FF8F9B2F42093
:1090100000F08BF8390AF52000F087F808F0FF011E
:10902000F62000F082F84FEA1821F72000F07DF8D2
:10903000FFF7BCFE142002490870BDE8F88F00005D
:1090400018030020E204002070B504461748007899
:10905000062809D0062000F05BF80120FFF799FEF2
:109060004FF4FA7003F058FDA4F56160C82190FB3D
:10907000F1F085B2A4F5616090FBF1F086B2E9B23F
:10908000F42000F052F8290AF52000F04EF8F1B271
:10909000F62000F04AF8310AF72000F046F8FFF712
:1090A00085FE06200149087070BD000018030020ED
:1090B00010B50221A02000F038F80021492000F06E
:1090C00034F8012003F028FD0021A02000F02DF845
:1090D0000121492000F029F810BD70B50446002593
:1090E00000F086FE5A2000F023FE204600F020FE0D
:1090F000022003F037FD00F07BFE5B2000F018FE3D
:10910000012000F05FFD054600F0E2FE284670BD3C
:1091100010B504462146422000F007F810BD10B5F6
:1091200001214A2000F001F810BD70B505460C463B
:1091300000F05EFE5A2000F0FBFD284600F0F8FD2E
:10914000204600F0F5FD00F0C3FE70BD70B5884804
:10915000B0F9FA11B0F9F601814276D1854800786C
:10916000032873D184480078032870DD8048B0F864
:109170000E0220B17E48B0F80E02062867D17E4864
:109180000078042807D17C480089012803D1642095
:109190007A490870EBE078480078401E7649891CCF
:1091A00031F8100068BB881E0078401E2A3131F863
:1091B0001000B0F5FA6F03DA2D2070490870D6E080
:1091C0006D480078401E6C492C3131F8100040F693
:1091D000B831884203DA322068490870C7E066482F
:1091E0000078401E64492C3131F81000B0F57A6FD8
:1091F00003DA5A2061490870B9E064205F490870B9
:10920000B5E05D480078801E5B49891C31F810008C
:1092100080BB881E0078801E2A3131F81000B0F51E
:10922000FA6F03DA2D2055490870A0E05248007803
:10923000801E51492C3131F8100040F6B831884277
:1092400006DA32204D49087091E07DE06AE041E0A5
:1092500049480078801E48492C3131F81000B0F59B
:109260007A6F03DA5A204549087080E06420434948
:1092700008707CE0FFE740480078C01E3E492C3172
:1092800031F81000B0F5FA6F03DA2D203B49087071
:109290006DE039480078C01E37492C3131F8100094
:1092A00040F6B831884203DA3220344908705EE073
:1092B00031480078C01E30492C3131F81000B0F52B
:1092C0007A6F03DA5A202D49087050E064202B4948
:1092D00008704CE02648B0F80E0207280CD126484A
:1092E000008EB0F5FA6F03DC4620244908703EE09A
:1092F0006420224908703AE01D48B0F80E020828A0
:109300000CD11D48008EB0F5FA6F03DA46201B49D8
:1093100008702CE064201949087028E0642017497F
:10932000087024E016480068FCF70FF80446154A58
:10933000154BFCF735F803D85A201049087016E091
:1093400064200E49087012E00D480068FBF7FDFF2D
:1093500004460C4A0C4BFCF723F803D85A20074963
:10936000087004E0024890F8FA010449087070BDE2
:10937000840000205D000020C40400205B00002069
:1093800018000020CDCCCCCCCCCC374010B5AD48AB
:10939000B0F90E020A2872D2DFE800F0054776A481
:1093A000D2F5F4F3F2F1FFF707FDA74800780128A2
:1093B0000DD10020FFF7EDFC642003F0ADFB42F679
:1093C000E060FFF741FE0220A04908702CE09E48B3
:1093D0000078401E9C49891C31F8100001281DD1DD
:1093E000881E0078401E0E3131F8100044F62061CE
:1093F000884213DB94490978491E934A2C3232F88B
:10940000113091490978491EC8B244F620621146CC
:10941000FFF7ACFD01208D49087005E00420FFF73F
:1094200065FD0320894908700AE1FFF7C5FC8648FD
:109430000078401E8449891C31F81000012813D19E
:10944000891E0978491E804A2C3232F811307E4933
:109450000978491EC8B242F6F8221146FFF786FD88
:1094600001207A4908700EE077480078012807DD6E
:109470000020FFF73BFD01207449087003E0DEE0A7
:10948000022072490870DBE0FFF796FC6E48007816
:10949000401E6D49891C31F81000012813D1891E26
:1094A0000978491E684A2C3232F811306649097829
:1094B000491EC8B243F698221146FFF757FD012016
:1094C000624908700DE060480078012806DD002040
:1094D000FFF70CFD01205D49087002E002205B49A6
:1094E0000870ADE0FFF768FC57480078401E564909
:1094F000891C31F81000012813D1891E0978491EF2
:10950000514A2C3232F811304F490978491EC8B2FD
:1095100044F620621146FFF729FD01204B490870EF
:109520000DE049480078012806DD0020FFF7DEFC49
:1095300001204649087002E00220444908707FE09B
:10954000FFF73AFC40480078401E3F49891C31F83B
:109550001000012818D1891E0978491E3A4A2C3278
:1095600032F8113038490978491EC8B245F208224C
:109570001146FFF7FBFC01203449087012E04DE072
:109580003BE029E017E00EE02F480078012806DDD7
:109590000020FFF7ABFC01202C49087002E00220FC
:1095A0002A4908704CE042F6E060FFF74DFD0220CA
:1095B0002649087044E0FFF7FFFB234800780128A4
:1095C00006DD0420FFF792FC03202049087002E02A
:1095D00002201E49087033E0FFF7EEFB1A480078BE
:1095E000012806DD0320FFF781FC032017490870DE
:1095F00002E002201549087022E0FFF7DDFB124867
:109600000078012806DD0220FFF770FC03200F49D7
:10961000087002E002200D49087011E0FFF7CCFB52
:1096200009480078012806DD0120FFF75FFC0320D0
:109630000649087002E002200449087000E000BFFB
:1096400000BF10BD84000020C40400205D00002085
:1096500070B501228A498B4802F0CCFD8848008809
:109660008949098888427DD04FF496708749C8801F
:109670003221864841830021C185A0F84210012192
:10968000A0F85610A0F86A100021A0F87E10A0F8EB
:109690009210A0F8A6104FF48C71A0F8BA104FF4F5
:1096A000A071A0F8CE104FF4BE71A0F8E2104FF4F4
:1096B000CD71A0F8F6103C21A0F80A110121A0F804
:1096C0001E110021A0F832113C21A0F846113221D0
:1096D000A0F85A114FF4B471A0F86E110521A0F84A
:1096E00082110121A0F896110521A0F8AA110021EC
:1096F000A0F8BE11A0F8D211A0F8E6110F21A0F831
:10970000FA110021A0F80E123121A0F82212002136
:10971000A0F836125E48008801B25C48A0F84A12F0
:109720005B48408801B25948A0F85E1258488088CA
:1097300001B25648A0F872125548C08801B2534889
:10974000A0F886120021418700205049488200215C
:109750004E48A0F86611A0F85612A0F86A12A0F8B8
:109760007E1200E031E0A0F8921247480088494993
:1097700008800226002415E000250FE005EB850097
:10978000424901EB800030F8140082B23046711C6F
:109790008EB2404921F81020681CC5B2212DEDDBA6
:1097A000601CC4B20A2CE7DB364802F019FD012226
:1097B0003849344802F006FD4FF4A5723549091DB9
:1097C0003048801C02F0FEFC57E04FF4A5722C4993
:1097D000091D2C48801C02F00DFD0226002415E016
:1097E00000250FE03046711C8EB2254931F810007B
:1097F00000B205EB8501254A02EB810121F8140036
:10980000681CC5B2212DEDDB601CC4B20A2CE7DB5D
:109810001B48B0F8CE00B0F5167F05DD1848B0F84B
:10982000CE0001B21948C1851548B0F80201B0F563
:10983000167F06DD1248B0F8020101B21348A0F805
:1098400036121248B0F84A02134908800F48B0F89F
:109850005E0248800D48B0F8720288800B48B0F86C
:109860008602C8800948B0F8420018B900200B49A8
:10987000087402E001200949087402F0A3FF70BDDA
:10988000A607002000FC0108000000208400002042
:109890001A030020FE0400202A0000208C0400206F
:1098A00070B52048B0F8A60001280AD100201E4952
:1098B000088001221D4802F085FC01201C49087027
:1098C0002EE01C480088184908800226002415E074
:1098D00000250FE005EB8500124901EB800030F810
:1098E000140082B23046711C8EB20F4921F810204C
:1098F000681CC5B2212DEDDB601CC4B20A2CE7DB6D
:109900000A4802F06DFC01220749084802F05AFC9F
:109910004FF4A5720449091D0448801C02F052FC52
:1099200070BD000084000020FE04002000FC01083F
:1099300052000020000000202DE9F04102460025E1
:109940000026002000230024002791F803C00CF01B
:109950000F0591F803C00CF0100CBCF1000F03D000
:1099600091F802C04CEA050591F800C0BCF1000F67
:1099700031D0146800202BE04FF0010C0CFA00F3FA
:10998000B1F800C00CEA03069E4220D183004FF0DC
:109990000F0C0CFA03F7BC4305FA03FC4CEA040471
:1099A00091F803C0BCF1280F06D14FF0010C0CFA5E
:1099B00000FCC2F814C00AE091F803C0BCF1480FE3
:1099C00005D14FF0010C0CFA00FCC2F810C0401C8D
:1099D0000828D1D31460B1F800C0BCF1FF0F34DD0A
:1099E000546800202EE000F1080C4FF0010808FA3E
:1099F0000CF3B1F800C00CEA03069E4221D18300AB
:109A00004FF00F0C0CFA03F7BC4305FA03FC4CEAC9
:109A1000040491F803C0BCF1280F05D100F1080C33
:109A200008FA0CF8C2F8148091F803C0BCF1480F92
:109A300007D100F1080C4FF0010808FA0CF8C2F841
:109A40001080401C0828CED35460BDE8F08100008F
:109A500070B5044634B1022C0BD0042C10D0052C68
:109A60001CD114E00723012200211648FBF79AFEBF
:109A700015E00723012202211248FBF793FE0EE0B6
:109A80000723012204210F48FBF78CFE07E0072380
:109A9000012205210B48FBF785FE00E000BF00BF57
:109AA00001210848FBF7DFFE00BF02210548FBF754
:109AB00015FE0028F9D00348FBF70CFE05462846A2
:109AC00070BD00000024014000BFFEE708B5012181
:109AD000082002F0C1FA4FF44C60ADF800001420E9
:109AE0008DF8030003208DF8020069460848FFF74F
:109AF00023FF07480C30006840F0400004490C3157
:109B000008600846006840F08000086008BD00005A
:109B1000000C014010B50324284800880E2825D1E8
:109B20002748006840F08000254908600846006822
:109B300020F040000860012003F014F8204800687D
:109B400040F040001E490860081F006800F08000D7
:109B500008B1012400E00024012003F003F81848B4
:109B6000006820F040001649086024E014480068AE
:109B700040F48060124908600846006820F40060E4
:109B80000860012002F0EEFF0D48006840F400601C
:109B90000B490860081F006800F4806008B10124C8
:109BA00000E00024012002F0DDFF0548006820F4F9
:109BB000006003490860204610BD0000020000203C
:109BC0000C0C014070B5064600252C4800880E2874
:109BD00027D12B48006840F0800029490860002404
:109BE0001CE02748006820F040002549086001205B
:109BF00002F0B8FF2248006840F0400020490860A9
:109C00006806050E081F006800F0800008B145F0E6
:109C10000105012002F0A6FF601CC4B2082CE0DBA5
:109C200026E01748006840F4806015490860002469
:109C30001CE01348006820F400601149086001200E
:109C400002F090FF0E48006840F400600C49086084
:109C50006806050E081F006800F4806008B145F032
:109C60000105012002F07EFF601CC4B2082CE0DB7D
:109C7000304600F007F8284670BD000002000020C2
:109C80000C0C014010B50446274800880E2825D149
:109C90002648006820F04000244908602CB108469E
:109CA000006840F08000086005E02048006820F06F
:109CB00080001E490860012002F054FF1B48006824
:109CC00040F0400019490860012002F04BFF17489E
:109CD000006820F040001549086024E0134800683F
:109CE00020F40060114908602CB10846006840F477
:109CF0008060086005E00D48006820F480600B4932
:109D00000860012002F02EFF0848006840F400605F
:109D100006490860012002F025FF0448006820F48D
:109D200000600249086010BD020000200C0C0140D8
:109D300070B505462C4800880E2828D1002423E061
:109D40002A48006820F0400028490860802020410F
:109D5000284028B10846006840F08000086005E00F
:109D60002248006820F0800020490860012002F0AD
:109D7000F9FE1E48006840F040001C4908600120C0
:109D800002F0F0FE601CC4B2082CD9DB27E00024EE
:109D900023E01648006820F4006014490860802021
:109DA0002041284028B10846006840F480600860DF
:109DB00005E00E48006820F480600C49086001202E
:109DC00002F0D0FE0948006840F4006007490860CE
:109DD000012002F0C7FE601CC4B2082CD9DBFFF7DB
:109DE00099FE0646304670BD020000200C0C014072
:109DF00010B5234800880E2820D12248006840F082
:109E00004000204908600846006840F08000086073
:109E1000032002F0A7FE1B48006820F080001949CB
:109E20000860012002F09EFE1648006820F0400005
:109E300014490860032002F095FE1FE011480068F5
:109E400040F400600F4908600846006840F48060F4
:109E50000860032002F086FE0A48006820F4806053
:109E600008490860012002F07DFE0648006820F4E1
:109E7000006004490860032002F074FE10BD000079
:109E8000020000200C0C014010B51048006840F0A2
:109E900040000E4908600846006840F080000860F5
:109EA000032002F05FFE0948006820F080000749A7
:109EB0000860012002F056FE0448006820F04000CF
:109EC00002490860032002F04DFE10BD0C0C014059
:109ED00010B5234800880E2820D12248006820F0C1
:109EE0004000204908600846006820F080000860B3
:109EF000032002F037FE1B48006840F0400019497B
:109F00000860012002F02EFE1648006840F0800034
:109F100014490860032002F025FE1FE01148006884
:109F200020F400600F4908600846006820F4806053
:109F30000860032002F016FE0A48006840F4006042
:109F400008490860012002F00DFE0648006840F450
:109F5000806004490860032002F004FE10BD000088
:109F6000020000200C0C014010B51048006820F0E1
:109F700040000E4908600846006820F08000086034
:109F8000032002F0EFFD0948006840F04000074957
:109F90000860012002F0E6FD0448006840F08000FF
:109FA00002490860032002F0DDFD10BD0C0C0140E9
:109FB00070B505460C46FFF767FF782002F0A4FC59
:109FC000204602F0A1FC284602F09EFCFFF7CCFFE1
:109FD00070BD00000348007818B94AF6AA2002496B
:109FE00008607047520000200030004010B5002289
:109FF000202815D006DC04280CD008280CD0102806
:10A0000016D10BE040280DD080280DD0B0F5807F10
:10A010000ED10BE000220DE001220BE0022209E04C
:10A02000032207E0042205E0052203E0062201E006
:10A03000072200BF00BF45F25553064C236023465C
:10A040005A6099604AF6AA2323604CF6CC432360F9
:10A0500010BD00000030004010B5274880780B2864
:10A0600039D2DFE800F006090C1215181B1E0F3854
:10A07000210000F0A1F93CE000F006FF39E000F01B
:10A0800005FE36E000F07CFF33E000F08BFD30E0B1
:10A0900000F086FE2DE000F0E9FF2AE000F0E2FC8F
:10A0A00027E000F073FC24E014488079012809D0EF
:10A0B00013488079012805D0124840881249098840
:10A0C000884207DD00200D4988710D4988710A49D1
:10A0D000088188700DE009488079012803D008487C
:10A0E0008079012804D100200449887104498871CD
:10A0F00000BF00BF10BD00008C04002064000020E1
:10A100006C0000207C0000204004002010B50024DA
:10A110003048B0F8D20120B92F48006800F002049E
:10A1200003E02D48006800F0010454BB2B48007880
:10A1300038BB2B48007820BB2848807908BB2948C9
:10A140004088401C27494880084640880A280ED18C
:10A150000846408864280ADA6420234908800120E0
:10A16000204908704621642002F026FC30E01D489A
:10A17000408864282CDD64201A4948800220087039
:10A1800026E0184840880A280DDD164840886428D3
:10A1900009DA1248007830B91048807918B90120DE
:10A1A0001049887102E005200F4908800E48008898
:10A1B000012805DD0C480088401E0B49088002E09C
:10A1C00000200849887100200649087008714880FD
:10A1D00010BD000084000020080C01407400002025
:10A1E0006C00002064000020420400202148006828
:10A1F00000F0020000BB1F48006800F00100D8B961
:10A200001D484088401C1C494880084640880A2850
:10A210000ADD08464088642806DA64201749088069
:10A2200001201549087024E013484088642820DD87
:10A230000220114908701CE00F4840880A2806DDFA
:10A240000D484088642802DA01200B4988710B48C8
:10A250000088012805DD09480088401E074908805C
:10A2600002E00020044988710020034948800870FA
:10A2700008717047080C014074000020460400205B
:10A2800010B500243048B0F8D20120B92F4800683A
:10A2900000F0010403E02D48006800F0020454BB04
:10A2A0002B48007838BB2B48007820BB28488079A1
:10A2B00008BB29484088401C2749488008464088F8
:10A2C0000A280ED10846408864280ADA6420234907
:10A2D00008800120204908704621642002F06CFBB0
:10A2E00030E01D48408864282CDD64201A494880ED
:10A2F0000220087026E0184840880A280DDD16481C
:10A300004088642809DA1248007830B9104880790A
:10A3100018B901201049887102E005200F49088012
:10A320000E480088012805DD0C480088401E0B49B6
:10A33000088002E000200849887100200649488012
:10A340000870087110BD000084000020080C014056
:10A3500074000020640000206C00002044040020F1
:10A3600000201049096801F008000F490880098899
:10A370000E4A128891420BD00B4909880B4A118072
:10A380000B494988491C0A4A51800021094A118019
:10A3900008490988B1F57A7F02DD0021044A51801D
:10A3A0007047000008080140480400204A040020CB
:10A3B0007C000020360000202DE9F0470024FA48F8
:10A3C0000078012804D10020F7490870F749086097
:10A3D000F748007860B90120F5490870F548007C1D
:10A3E00018B90020F449087002E00120F249087011
:10A3F000F248B0F94200F2490978884245D0EF4866
:10A4000090F84200EE4908700846007810B1012823
:10A4100031D118E0E8480078012813D10020E6493E
:10A420000870E2480068FAF7FFFE8146FAF78DFFF0
:10A430000746E44AE44BFAF788FE0546FAF74DFF73
:10A44000DA49086018E0DC48007898B90120DA4958
:10A450000870D6480068FAF7E7FE8146FAF775FFFC
:10A460000746D84AD84BFAF7FEFD0546FAF735FFFE
:10A47000CE49086000E000BF00BFD048C088CB498B
:10A480000988084400B2D1490880D1488079012860
:10A4900036D1D04800780028FAD1CD4988710124FE
:10A4A000CD48007868BBC548B0F91A00BF490968B3
:10A4B0000844BE490860C148C0880988084400B201
:10A4C000C2490880BD48B0F90400B1F900108842C3
:10A4D00016DABA48B0F91A00B4490968081AB3493B
:10A4E0000860B6480179807EB84A1278101A081AB6
:10A4F000BA490870AD48006809780844AB4908605B
:10A500006BE0AE48B0F81E01C8B9B5480078401CF1
:10A51000B349087008460078032801DD012008705F
:10A52000AF480078032858D1A448B0F9E210B0F938
:10A53000DE00814251D10120A94908704DE001247B
:10A54000A848007838BBA8480078012823D19B4848
:10A55000B0F80A01D8B94FF49661782002F02CFACD
:10A5600002F06AFAFFF736FD4FF49661782002F0A8
:10A5700023FA02F061FAFFF72DFD4FF4966178207F
:10A5800002F01AFA02F058FAFFF724FD25E0012044
:10A590009449087021E09348007801281AD14FF4BB
:10A5A0009661782002F008FA02F046FAFFF712FDF1
:10A5B0004FF49661782002F0FFF902F03DFAFFF7C0
:10A5C00009FD4FF49661782002F0F6F902F034FAB2
:10A5D000FFF700FD0020834908707D4800780228BD
:10A5E00013D17B48007980B97A48007868B9012096
:10A5F000774908716F49887000207C4908706D495F
:10A6000088727949087000F0D1FD79488079012875
:10A6100037D1704800780028FAD1754988716E48A2
:10A62000007878BB6548B0F91A0060490968081AD3
:10A630005E4908606148C0880988084400B26349DF
:10A6400008805E48B0F90200B1F90010884218DDB8
:10A650005A48B0F91A005549096808445349086036
:10A660005648807859490978401A62490870534819
:10A67000B0F91A000978081A4C49096808444B498E
:10A68000086070E0FFE74D48B0F81E01F0BB012400
:10A690005448007838BB54480078012823D14748F3
:10A6A000B0F80A01D8B94FF49661782002F084F925
:10A6B00002F0C2F9FFF78EFC4FF49661782002F0A9
:10A6C0007BF902F0B9F9FFF785FC4FF49661782029
:10A6D00002F072F902F0B0F9FFF77CFC43E00120D0
